{
  "contractName": "SimpleStorage",
  "abi": [
    {
      "inputs": [],
      "stateMutability": "nonpayable",
      "type": "constructor"
    },
    {
      "anonymous": false,
      "inputs": [
        {
          "indexed": false,
          "internalType": "uint256",
          "name": "price",
          "type": "uint256"
        },
        {
          "indexed": false,
          "internalType": "string",
          "name": "name",
          "type": "string"
        },
        {
          "indexed": false,
          "internalType": "address",
          "name": "from",
          "type": "address"
        },
        {
          "indexed": false,
          "internalType": "string",
          "name": "received_msg",
          "type": "string"
        },
        {
          "indexed": false,
          "internalType": "enum SimpleStorage.productstate",
          "name": "p",
          "type": "uint8"
        },
        {
          "indexed": false,
          "internalType": "uint256",
          "name": "index_of_item",
          "type": "uint256"
        }
      ],
      "name": "Adding_item",
      "type": "event"
    },
    {
      "anonymous": false,
      "inputs": [
        {
          "indexed": false,
          "internalType": "uint256",
          "name": "price",
          "type": "uint256"
        },
        {
          "indexed": false,
          "internalType": "string",
          "name": "name",
          "type": "string"
        }
      ],
      "name": "about_item",
      "type": "event"
    },
    {
      "anonymous": false,
      "inputs": [
        {
          "indexed": false,
          "internalType": "string",
          "name": "prduct",
          "type": "string"
        },
        {
          "indexed": false,
          "internalType": "address",
          "name": "i",
          "type": "address"
        },
        {
          "indexed": false,
          "internalType": "enum SimpleStorage.productstate",
          "name": "",
          "type": "uint8"
        }
      ],
      "name": "buy",
      "type": "event"
    },
    {
      "inputs": [
        {
          "internalType": "uint256",
          "name": "",
          "type": "uint256"
        }
      ],
      "name": "item_des",
      "outputs": [
        {
          "internalType": "uint256",
          "name": "price",
          "type": "uint256"
        },
        {
          "internalType": "string",
          "name": "name",
          "type": "string"
        },
        {
          "internalType": "enum SimpleStorage.productstate",
          "name": "p",
          "type": "uint8"
        }
      ],
      "stateMutability": "view",
      "type": "function",
      "constant": true
    },
    {
      "inputs": [],
      "name": "itm_np",
      "outputs": [
        {
          "internalType": "uint256",
          "name": "",
          "type": "uint256"
        }
      ],
      "stateMutability": "view",
      "type": "function",
      "constant": true
    },
    {
      "stateMutability": "payable",
      "type": "receive",
      "payable": true
    },
    {
      "inputs": [
        {
          "internalType": "uint256",
          "name": "x",
          "type": "uint256"
        }
      ],
      "name": "set",
      "outputs": [],
      "stateMutability": "nonpayable",
      "type": "function"
    },
    {
      "inputs": [],
      "name": "get",
      "outputs": [
        {
          "internalType": "uint256",
          "name": "",
          "type": "uint256"
        }
      ],
      "stateMutability": "view",
      "type": "function",
      "constant": true
    },
    {
      "inputs": [],
      "name": "get_bal",
      "outputs": [
        {
          "internalType": "uint256",
          "name": "",
          "type": "uint256"
        }
      ],
      "stateMutability": "nonpayable",
      "type": "function"
    },
    {
      "inputs": [
        {
          "internalType": "uint256",
          "name": "item_price",
          "type": "uint256"
        },
        {
          "internalType": "string",
          "name": "item_name",
          "type": "string"
        }
      ],
      "name": "add_item",
      "outputs": [],
      "stateMutability": "nonpayable",
      "type": "function"
    },
    {
      "inputs": [
        {
          "internalType": "uint256",
          "name": "index",
          "type": "uint256"
        }
      ],
      "name": "check_item_name",
      "outputs": [
        {
          "internalType": "string",
          "name": "",
          "type": "string"
        }
      ],
      "stateMutability": "nonpayable",
      "type": "function"
    },
    {
      "inputs": [
        {
          "internalType": "uint256",
          "name": "index",
          "type": "uint256"
        }
      ],
      "name": "pay_amount",
      "outputs": [],
      "stateMutability": "payable",
      "type": "function",
      "payable": true
    },
    {
      "inputs": [],
      "name": "get_address",
      "outputs": [
        {
          "internalType": "address",
          "name": "",
          "type": "address"
        }
      ],
      "stateMutability": "nonpayable",
      "type": "function"
    }
  ],
  "bytecode": "0x608060405234801561001057600080fd5b5033600160006101000a81548173ffffffffffffffffffffffffffffffffffffffff021916908373ffffffffffffffffffffffffffffffffffffffff160217905550610df5806100616000396000f3fe60806040526004361061008a5760003560e01c80636d4ce63c116100595780636d4ce63c146101665780637ace38791461019157806385093866146101bc578063b55587e3146101e5578063c224bdfa1461021057610091565b80630131222f146100965780632915132b146100c157806360fe47b1146100fe578063655a964b1461012757610091565b3661009157005b600080fd5b3480156100a257600080fd5b506100ab61022c565b6040516100b891906107ac565b60405180910390f35b3480156100cd57600080fd5b506100e860048036038101906100e39190610811565b610234565b6040516100f591906108d7565b60405180910390f35b34801561010a57600080fd5b5061012560048036038101906101209190610811565b610334565b005b34801561013357600080fd5b5061014e60048036038101906101499190610811565b610350565b60405161015d9392919061097f565b60405180910390f35b34801561017257600080fd5b5061017b61040f565b60405161018891906109bd565b60405180910390f35b34801561019d57600080fd5b506101a6610418565b6040516101b391906109bd565b60405180910390f35b3480156101c857600080fd5b506101e360048036038101906101de9190610b0d565b61041e565b005b3480156101f157600080fd5b506101fa610577565b60405161020791906109bd565b60405180910390f35b61022a60048036038101906102259190610811565b610580565b005b600030905090565b6060600060036000848152602001908152602001600020600101805461025990610b98565b80601f016020809104026020016040519081016040528092919081815260200182805461028590610b98565b80156102d25780601f106102a7576101008083540402835291602001916102d2565b820191906000526020600020905b8154815290600101906020018083116102b557829003601f168201915b505050505090506000600360008581526020019081526020016000206000015490507f7913e2d002ea138590667ca6dc92e1e5eaaed9b9c4bc850c75735d287fff30468183604051610325929190610bca565b60405180910390a15050919050565b60006064826103439190610c29565b9050806000819055505050565b600360205280600052604060002060009150905080600001549080600101805461037990610b98565b80601f01602080910402602001604051908101604052809291908181526020018280546103a590610b98565b80156103f25780601f106103c7576101008083540402835291602001916103f2565b820191906000526020600020905b8154815290600101906020018083116103d557829003601f168201915b5050505050908060020160009054906101000a900460ff16905083565b60008054905090565b60025481565b81600360006004548152602001908152602001600020600001819055508060036000600454815260200190815260200160002060010190805190602001906104679291906106c8565b50600060036000600454815260200190815260200160002060020160006101000a81548160ff021916908360018111156104a4576104a3610908565b5b0217905550600030905060006040518060400160405280600a81526020017f6974656d2061646465640000000000000000000000000000000000000000000081525090507f33545fa7d66dbeecf08cb169e43be7093a721d6b210f51f7a74855e5bfd3e8dc8484848460036000600454815260200190815260200160002060020160009054906101000a900460ff1660045460405161054896959493929190610c7f565b60405180910390a16004546002819055506004600081548092919061056c90610cee565b919050555050505050565b6000600a905090565b600060036000600454815260200190815260200160002060010180546105a590610b98565b80601f01602080910402602001604051908101604052809291908181526020018280546105d190610b98565b801561061e5780601f106105f35761010080835404028352916020019161061e565b820191906000526020600020905b81548152906001019060200180831161060157829003601f168201915b50505050509050600160036000600454815260200190815260200160002060020160006101000a81548160ff0219169083600181111561066157610660610908565b5b02179055507f6d63bd20065b7f82319df9e932ef34a12f7c34465c939334eb346a43077e087a3360036000600454815260200190815260200160002060020160009054906101000a900460ff166040516106bc929190610d83565b60405180910390a15050565b8280546106d490610b98565b90600052602060002090601f0160209004810192826106f6576000855561073d565b82601f1061070f57805160ff191683800117855561073d565b8280016001018555821561073d579182015b8281111561073c578251825591602001919060010190610721565b5b50905061074a919061074e565b5090565b5b8082111561076757600081600090555060010161074f565b5090565b600073ffffffffffffffffffffffffffffffffffffffff82169050919050565b60006107968261076b565b9050919050565b6107a68161078b565b82525050565b60006020820190506107c1600083018461079d565b92915050565b6000604051905090565b600080fd5b600080fd5b6000819050919050565b6107ee816107db565b81146107f957600080fd5b50565b60008135905061080b816107e5565b92915050565b600060208284031215610827576108266107d1565b5b6000610835848285016107fc565b91505092915050565b600081519050919050565b600082825260208201905092915050565b60005b8381101561087857808201518184015260208101905061085d565b83811115610887576000848401525b50505050565b6000601f19601f8301169050919050565b60006108a98261083e565b6108b38185610849565b93506108c381856020860161085a565b6108cc8161088d565b840191505092915050565b600060208201905081810360008301526108f1818461089e565b905092915050565b610902816107db565b82525050565b7f4e487b7100000000000000000000000000000000000000000000000000000000600052602160045260246000fd5b6002811061094857610947610908565b5b50565b600081905061095982610937565b919050565b60006109698261094b565b9050919050565b6109798161095e565b82525050565b600060608201905061099460008301866108f9565b81810360208301526109a6818561089e565b90506109b56040830184610970565b949350505050565b60006020820190506109d260008301846108f9565b92915050565b600080fd5b600080fd5b7f4e487b7100000000000000000000000000000000000000000000000000000000600052604160045260246000fd5b610a1a8261088d565b810181811067ffffffffffffffff82111715610a3957610a386109e2565b5b80604052505050565b6000610a4c6107c7565b9050610a588282610a11565b919050565b600067ffffffffffffffff821115610a7857610a776109e2565b5b610a818261088d565b9050602081019050919050565b82818337600083830152505050565b6000610ab0610aab84610a5d565b610a42565b905082815260208101848484011115610acc57610acb6109dd565b5b610ad7848285610a8e565b509392505050565b600082601f830112610af457610af36109d8565b5b8135610b04848260208601610a9d565b91505092915050565b60008060408385031215610b2457610b236107d1565b5b6000610b32858286016107fc565b925050602083013567ffffffffffffffff811115610b5357610b526107d6565b5b610b5f85828601610adf565b9150509250929050565b7f4e487b7100000000000000000000000000000000000000000000000000000000600052602260045260246000fd5b60006002820490506001821680610bb057607f821691505b60208210811415610bc457610bc3610b69565b5b50919050565b6000604082019050610bdf60008301856108f9565b8181036020830152610bf1818461089e565b90509392505050565b7f4e487b7100000000000000000000000000000000000000000000000000000000600052601160045260246000fd5b6000610c34826107db565b9150610c3f836107db565b9250827fffffffffffffffffffffffffffffffffffffffffffffffffffffffffffffffff03821115610c7457610c73610bfa565b5b828201905092915050565b600060c082019050610c9460008301896108f9565b8181036020830152610ca6818861089e565b9050610cb5604083018761079d565b8181036060830152610cc7818661089e565b9050610cd66080830185610970565b610ce360a08301846108f9565b979650505050505050565b6000610cf9826107db565b91507fffffffffffffffffffffffffffffffffffffffffffffffffffffffffffffffff821415610d2c57610d2b610bfa565b5b600182019050919050565b7f7300000000000000000000000000000000000000000000000000000000000000600082015250565b6000610d6d600183610849565b9150610d7882610d37565b602082019050919050565b60006060820190508181036000830152610d9c81610d60565b9050610dab602083018561079d565b610db86040830184610970565b939250505056fea26469706673582212203e14af5612f87a15ab9d7ed0e1f7af9bb27ff2da87c1cf018e7a1a136350b6c964736f6c63430008090033",
  "immutableReferences": {},
  "source": "// SPDX-License-Identifier: MIT\npragma solidity 0.8.9;\n\ncontract SimpleStorage {\n  uint storedData;\n  address owner;\n  uint   public itm_np;\n  enum productstate {create,paid}\n\n  event Adding_item(uint price,string name,address from,string  received_msg, productstate p,uint index_of_item);\n  event buy(string prduct,address i,productstate);\n  event about_item(uint price,string name);\n  struct item{\n    uint price;\n    string name;\n    productstate p;\n  }\n  mapping (uint=>item) public item_des;\n  uint itemindex;\n\n constructor() public{\n      owner=msg.sender;\n\n  }\n  function set(uint x) public{\n    uint j=x+100;\n    storedData =j;\n    \n\n\n  \n\n\n  }\n\n  function get() public view returns (uint) {\n    return storedData;\n  }\n\n\n  function get_bal() public returns(uint){\n    return 10;\n\n\n\n  }\n\n\n  function add_item(uint item_price,string memory item_name) public{\n    item_des[itemindex].price=item_price;\n    item_des[itemindex].name=item_name;\n    item_des[itemindex].p=productstate.create;\n    address ms=address(this);\n    string memory sy=\"item added\";\n    emit Adding_item(item_price,item_name,ms,sy,item_des[itemindex].p,itemindex);\n    itm_np=itemindex;\n\n    itemindex++;\n    \n\n  }\n\n  function check_item_name(uint index) public returns(string memory){\n    string memory j=item_des[index].name;\n    uint k=item_des[index].price;\n    emit about_item(k,j);\n  }\n\n\n  function pay_amount(uint index) public payable{\n\n   \n    // require(item_des[itemindex].p==productstate.create,\"item is already paid\");\n    \n    //   require(msg.value==item_des[itemindex].price,\"amount should be equal to price\");\n      string memory item_names=item_des[itemindex].name;\n      item_des[itemindex].p=productstate.paid;\n      emit buy(\"s\",msg.sender,item_des[itemindex].p);\n      \n\n  }\n\n  function get_address() public returns(address){\n    return address(this);\n\n  }\n  \n  \n\n  receive() external payable{\n    \n\n  }\n\n\n\n\n\n\n}",
  "sourcePath": "I:\\todolist\\contracts\\SimpleStorage.sol",
  "compiler": {
    "name": "solc",
    "version": "0.8.9+commit.e5eed63a.Emscripten.clang"
  },
  "schemaVersion": "3.4.7",
  "updatedAt": "2022-05-11T18:38:55.201Z",
  "networkType": "ethereum",
  "devdoc": {
    "kind": "dev",
    "methods": {},
    "version": 1
  },
  "userdoc": {
    "kind": "user",
    "methods": {},
    "version": 1
  }
}